:020000020000FC
:100000000C9424001F9310E0109389001AE01093C1
:1000100088001127109385001093840010938000AE
:100020001AE01093810010916F00126010936F001E
:100030001F9108950093000108950093000100911D
:1000400000010023E1F708950FEF0DBF00E10EBF9F
:100050000E94020078941FEF1AB911E005E00FEF3B
:100060000FE10AB94D990C943A004E990C94440052
:100070000C94320040E04BB94E990C9444004F99D7
:100080000E944E000C943A0046E04BB94D990C94F6
:100090003A004F990E944E000C94440046E04BB940
:1000A0004AE04BB942E14BB941E14BB942E14BB9AE
:0A00B0004AE14BB946E04BB9089550
:00000001FF
