:020000020000FC
:040000000C94B000AC
:040034000C947C00AC
:1000F8000F930FB70F9300910001002319F00A9591
:10010800009300010F910FBF0F9118951F9310E0F6
:10011800109389001AE01093880011271093850026
:1001280010938400109380001AE0109381001091BE
:100138006F00126010936F001F91089500930001E3
:10014800089500930001009100010023E1F708954C
:1001580004E00E94A50008950FEF0DBF00E10EBF57
:100168000E948A002FEF2FE12AB94D990C94C10003
:100178004E990C94CB000C94B90040E04BB94E99C1
:100188000C94CB004F990E94D5000C94C10046E016
:100198004BB94D990C94C1004F990E94D5000C940D
:1001A800CB0046E04BB90E94AC004AE04BB90E9434
:1001B800AC0042E14BB90E94AC0041E14BB90E944E
:1001C800AC0042E14BB90E94AC004AE14BB90E9435
:0C01D800AC0046E04BB90E94AC0008955A
:00000001FF
