:020000020000FC
:040000000C94520109
:040010000C94F80054
:040034000C94150112
:1001F0000F930FB70F93059B30E0069B31E0079BF1
:100200000E9406010F910FBF0F9118951F932F9316
:1002100015E021E025172CF451171CF42F911F91A4
:10022000089540E02F911F9108950F930FB70F93FA
:1002300000910001002319F00A95009300010F912D
:100240000FBF0F9118950F931F9301E00093680063
:1002500000EE00936B001F910F9108951F9310E023
:100260001093890012E610938800112710938500DF
:1002700010938400109380001DE010938100109172
:100280006F00126010936F001F91089505E00093B6
:100290000001089505E00093000100910001002392
:1002A000E1F708950FEF0DBF00E10EBF0E9423019B
:1002B0000E942E01789431E041E00FE101B900EE97
:1002C00002B9000050E0332331F420EE22B9442378
:1002D00011F00C94620121EF22B95395442311F0DF
:1002E0000C9462010E944A01439522EF22B9539572
:1002F0000E944A0124EF22B953950E944A012CEE34
:1003000022B953950E944A0124EF22B953950E94C5
:100310004A0126EF22B953950E944A0121EF22B9E2
:1003200053950E944A0121EF22B953950E944A0138
:040330000C946201C6
:00000001FF
