:020000020000FC
:040000000C9451010A
:040010000C94F80054
:040034000C94140113
:1001F0000F93059B30E0069B31E0079B0E940201B4
:100200000F9118950F931F932F9315E021E0251759
:1002100034F4511724F42F911F910F91089541E068
:100220002F911F910F9108950F930FB70F93009186
:100230000001002319F00A95009300010F910FBFF0
:100240000F9118950F931F9301E00093680000EE43
:1002500000936B001F910F9108951F9310E010936E
:10026000890012E6109388001127109385001093DF
:100270008400109380001DE01093810010916F00A6
:10028000126010936F001F91089505E00093000124
:10029000089505E000930001009100010023E1F7BB
:1002A00008950FEF0DBF00E10EBF0E9422010E94D2
:1002B0002D01789431E041E00FE101B900EE02B97F
:1002C000000050E0311739F420EE22B950E0541705
:1002D00011F00C94610121EF22B95395451710F0EC
:1002E0000C9461010E944901439522EF22B9539574
:1002F0000E94490124EF22B953950E9449012CEE36
:1003000022B953950E94490124EF22B953950E94C6
:10031000490126EF22B953950E94490121EF22B9E4
:1003200053950E94490121EF22B953950E9449013A
:040330000C946101C7
:00000001FF
