:020000020000FC
:040000000C94120149
:040010000C94BA0092
:040034000C94D70051
:100174000F930FB70F93059B30E0069B31E0079B6D
:100184000E94C8000F910FBF0F9118951F932F93D2
:1001940015E021E025172CF451171CF42F911F9121
:1001A400089540E02F911F9108950F930FB70F9377
:1001B40000910001002319F00A95009300010F91AA
:1001C4000FBF0F9118950F931F9301E000936800E0
:1001D40000EE00936B001F910F9108951F9310E0A0
:1001E4001093890012E6109388001127109385005C
:1001F40010938400109380001DE0109381001091EF
:100204006F00126010936F001F9108950093000116
:10021400089500930001009100010023E1F708957F
:100224000FEF0DBF00E10EBF0E94E5000E94F00039
:10023400789431E041E00FE101B900EE02B9000029
:1002440050E0332331F420EE22B9442311F00C940E
:100254002201539521EF22B9442311F00C94220179
:10026400539502E00E940B01439522EF22B9539566
:1002740005E00E940B0124EF22B9539505E00E948A
:100284000B012CEE22B9539505E00E940B0124EFDB
:1002940022B9539502E00E940B0126EF22B953952F
:1002A40005E00E940B0121EF22B9539505E00E945D
:1002B4000B0121EF22B905E00E940B010C942201ED
:00000001FF
