:020000020000FC
:040000000C94320129
:040010000C94F80054
:040034000C94010126
:1001F0000F931F9317B102B1012702B91F910F91FD
:1002000018950F930FB70F9300910001002319F079
:100210000A95009300010F910FBF0F9118950F934E
:100220001F9301E00093680000EE00936B001F91A4
:100230000F9108951F9310E01093890012E6109318
:10024000880011271093850010938400109380007C
:100250001DE01093810010916F00126010936F00E9
:100260001F9108950FEF0DBF00E10EBF0E940F0117
:0E0270000E941A0178941FE111B90C943D010F
:00000001FF
