:020000020000FC
:040000000C94140147
:040010000C94BA0092
:040034000C94D70051
:100174000F930FB70F93059B30E0069B31E0079B6D
:100184000E94C8000F910FBF0F9118951F932F93D2
:1001940015E021E025172CF451171CF42F911F9121
:1001A400089540E02F911F9108950F930FB70F9377
:1001B40000910001002319F00A95009300010F91AA
:1001C4000FBF0F9118950F931F9301E000936800E0
:1001D40000EE00936B001F910F9108951F9310E0A0
:1001E4001093890012E6109388001127109385005C
:1001F40010938400109380001DE0109381001091EF
:100204006F00126010936F001F91089505E0009332
:100214000001089505E0009300010091000100230E
:10022400E1F708950FEF0DBF00E10EBF0E94E50056
:100234000E94F000789431E041E00FE101B900EE52
:1002440002B9000050E0332331F420EE22B94423F4
:1002540011F00C942401539521EF22B9442311F099
:100264000C94240153950E940C01439522EF22B96A
:1002740053950E940C0124EF22B953950E940C015E
:100284002CEE22B953950E940C0124EF22B9539508
:100294000E940C0126EF22B953950E940C0121EF14
:1002A40022B953950E940C0121EF22B90E940C013E
:0402B4000C94240181
:00000001FF
