:020000020000FC
:040000000C94590102
:040010000C94F80054
:040034000C941C010B
:1001F0000F9300E0059B0093010101E0069B009333
:100200000101079B0E9406010F9118950F931F9300
:100210002F930091030115E021E0201734F401171A
:1002200024F42F911F910F91089501E00093020192
:100230002F911F910F9108950F930FB70F93009176
:100240000001002319F00A95009300010F910FBFE0
:100250000F9118950F931F9301E00093680000EE33
:1002600000936B001F910F9108951F9310E010935E
:10027000890012E6109388001127109385001093CF
:100280008400109380001DE01093810010916F0096
:10029000126010936F001F91089505E00093000114
:1002A000089505E000930001009100010023E1F7AB
:1002B00008950FEF0DBF00E10EBF0E942A010E94BA
:1002C0003501789401E0009301010FE101B900EEDE
:1002D00002B9000010E020910101211759F420EE2D
:1002E00022B910E01093030120910201121710F0BF
:1002F0000C946A0121EF22B911E0109303012091BF
:100300000201211711F00C946A010E94510100E0D2
:100310000093020122EF22B91395109303010E946A
:10032000510124EF22B91395109303010E9451014A
:100330002CEE22B91395109303010E94510124EF72
:1003400022B91395109303010E94510126EF22B99F
:100350001395109303010E94510121EF22B91395C7
:10036000109303010E94510121EF22B913951093BC
:0A03700003010E9451010C946A0180
:00000001FF
